:020000040000FA
:10000000080D0020490100005701000059010000BF
:1000100000000000000000000000000000000000E0
:100020000000000000000000000000005B01000074
:1000300000000000000000005D0100000D570000FE
:10004000655800006D580000A5390000253A0000F1
:10005000A136000099480000F52C0000793000001E
:10006000215B0000A914000029100000B91C000049
:10007000695D0000794900000000000000000000F8
:100080000000000000000000000000000000000070
:100090000000000000000000000000000000000060
:1000A0000000000000000000000000000000000050
:1000B0000000000000000000000000000000000040
:1000C00000F002F800F030F80CA030C8083824180E
:1000D0002D18A246671EAB4654465D46AC4201D180
:1000E00000F022F87E460F3E0FCCB6460126334282
:1000F00000D0FB1AA246AB4633431847086E0000F7
:10010000286E00000023002400250026103A01D3A9
:1001100078C1FBD8520700D330C100D50B607047BF
:100120001FB51FBD10B510BD00F020FF1146FFF731
:10013000F7FF05F09FFE00F038FF03B4FFF7F2FF72
:1001400003BC00F03FFF0000094880F3088809481D
:10015000804709480047FEE7FEE7FEE7FEE7FEE7C7
:10016000FEE7000005480649064A074B70470000B5
:10017000080D00205D580000C100000008070020A5
:10018000080D0020080900200809002010B5202AC9
:1001900004DB0146203A9140002010BD914020230D
:1001A0009C1A0346E3401943904010BD434351431A
:1001B00030B55C18010C130C0D4692B25D4380B251
:1001C00051432C19054655430A0C09044D19624147
:1001D0005843010C00044019514130BD70B5002551
:1001E0002C46AD1A9C4112DA00252C462D1A8C4162
:1001F00002DA00F03AFE70BD002440428C412146F4
:1002000000F033FE002440428C41214619E00025D5
:100210002C462D1A8C410ADA002452429C41234676
:1002200000F023FE002440428C41214670BD002492
:1002300052429C414042234600248C41214600F01A
:1002400014FE002452429C41234670BD01E004C0CC
:10025000091F0429FBD28B0701D50280801CC90726
:1002600000D00270704700290BD0C30702D0027083
:10027000401C491E022904D3830702D50280801C3A
:10028000891EE3E70022EEE70022DFE700220309F0
:100290008B422CD3030A8B4211D300239C464EE0A1
:1002A00003460B433CD4002243088B4231D303095D
:1002B0008B421CD3030A8B4201D394463FE0C3090F
:1002C0008B4201D3CB01C01A524183098B4201D327
:1002D0008B01C01A524143098B4201D34B01C01A12
:1002E000524103098B4201D30B01C01A5241C3088A
:1002F0008B4201D3CB00C01A524183088B4201D3F9
:100300008B00C01A524143088B4201D34B00C01AE4
:100310005241411A00D201465241104670475DE0F9
:10032000CA0F00D04942031000D34042534000227C
:100330009C4603098B422DD3030A8B4212D3FC2225
:10034000890112BA030A8B420CD3890192118B42A4
:1003500008D3890192118B4204D389013AD09211BA
:1003600000E08909C3098B4201D3CB01C01A524175
:1003700083098B4201D38B01C01A524143098B423E
:1003800001D34B01C01A524103098B4201D30B0127
:10039000C01A5241C3088B4201D3CB00C01A52414C
:1003A00083088B4201D38B00C01A5241D9D2430833
:1003B0008B4201D34B00C01A5241411A00D2014670
:1003C000634652415B10104601D34042002B00D5DA
:1003D0004942704763465B1000D3404201B500209C
:1003E000C046C04602BD704770477047F0B5F94D32
:1003F0000C091E092C402E402F468BB0A7437DD000
:10040000B543FCD0002E7AD0002CFCD00D465D40C8
:10041000ED0F2543AC1BFF25AD0464190894C502FC
:10042000440DC9022143500DDC0204430120C007E2
:1004300001430443D2020191200C110C00958C461B
:10044000010423468B430A9161460904E24D8A4325
:100450000991010A7D4449198039097805464D43BF
:1004600001266D18F605751B6943C90C640B891CC0
:100470004C436418B5012C1B250C2E04B4434C438B
:100480004D43210C691889090591009DE90701D0A8
:100490000121C90704912C4601996708CD072F4314
:1004A0004C08059DE10B4D432D0C294666467543CE
:1004B00002950D4645432E46029D7D1BB441009595
:1004C0000D465D4301942C0C2F040D465543AE465A
:1004D0002D0C3D43029503947546049C2D04641B2A
:1004E000049406D2029C039D641C0026754103956A
:1004F000029401AC70CC009F7D1B01E03EE162E103
:10050000B44109040095079101940599A408614339
:10051000090C0C464443650BE7040C4666467443DD
:10052000A646640B3C43039502947446049DE40480
:100530002C1B049406D2029C039D641C002675416A
:100540000395029401AC70CC009F7D1BB4410194D3
:100550000C465C430095650FE7000C465443A646E5
:10056000640F3C43039502947446049DE4002C1BE5
:10057000049406D2029C039D641C002675410395D9
:10058000029401AC70CC009F7D1BB441AE09AF0654
:10059000049DC900AD092F43049DA406AD06049532
:1005A000079D344369180791059DE10B4D432D0CC0
:1005B00029466646754302950D4645432E46029DE3
:1005C0007D1BB44100950D465D4301942C0C2F0416
:1005D0000D465543AE462D0C3D430295039475469A
:1005E000049C2D04641B049406D2029C039D641C8D
:1005F000002675410395029401AC70CC009F7D1BD1
:10060000B44101948C050694079C890A61180095F1
:100610000791019C0599A4086143090C0D464543C7
:10062000680BEF040D46644665436C0B3C43049F26
:10063000ED047D1BAC4602D20025641C6841009E7F
:10064000019D371B85410846584301950C46460FCE
:10065000C5005443600F28436546E4002C1B02D2BA
:100660000025401C6E41019D3F1AB5412846BD0939
:10067000800628438446A009BF064E020699A406B8
:1006800076180743079D002068410A99079019438F
:100690000020099B00906046FF1913434041E20F80
:1006A00064003A43A4460446D71A8C41A04203D9B9
:1006B0000120009020463A46C70F941840416246F8
:1006C000D20F2243644664000494009CBE4664003A
:1006D000D71AA446044602978C417746002F01D1D1
:1006E000A04204D96046401C8446029A2046C40FAA
:1006F000A64694184041049A0546D20F2243644608
:100700006400D31A8D417146002901D1A84202D953
:1007100028461A46641C10430122002800D01643C4
:1007200061020020079B891904465C410223002CCA
:1007300002DB491813466441089DCE0A2D145D1949
:100740004B056705E10A2C050D1908993E43C907B9
:100750006940002B08D0934006D30022761C5141FB
:10076000002B01D1760876001C4A002D43DB154290
:1007700041D0AA433FD030460BB0F0BD06180D461D
:100780004D41174C7642AC411AD395181C465C413A
:10079000134A6D42A24113D3012252054C00D442A8
:1007A0000AD15C00D4420BD04B4002D592021143D7
:1007B000E2E749004908DFE75940C90FC90718E0D7
:1007C00000200849D8E7054801420DD10342F7D07F
:1007D000F2E700000000FF07EC6900000000F07F76
:1007E0000000E0FF0000F87F114859400143C012AB
:1007F00041400020C0E70123089A9B069A4205DC8D
:10080000032252078918C90FC907B5E70522520705
:100810008918074A1143D2125140ADE770B5154609
:100820001C4602460B4628462146FFF7DFFD70BDF9
:10083000FFFFFF7F30B50346CA02400D1043164D3F
:10084000164C0A1502D02043002A06DBAA1A002AF9
:1008500012DDD040FF2A0BDC30BD5205520D01D114
:1008600040004008AA1A07D4D0404042FF2A01DDC8
:10087000002030BD0028FCDD4A00002B01D0012003
:1008800000E00020101801225205D042F0D8C8170D
:10089000C043604030BD00001E0400000000008026
:1008A0000346CA02400D10B510430A1504D00124B6
:1008B000E4072043002A05DB0A4CA21A04D4D040E6
:1008C000FF2A00DD002010BD4A00002B01D00120CE
:1008D00000E00020101801225205D042F2D8C817BB
:1008E000C04310BD1E0400001F22030C02D10F22C2
:1008F000000402D0030E03D004E00020014670473C
:100900000002083A030F01D10001121F830F01D129
:100910008000921E002801DB4000521E1205511873
:100920004205C012411810467047C10FC90700D0D8
:100930004042012292071143D6E701218907D3E7FC
:1009400010B50B1E01D0202301E0011E2BD00C0C92
:1009500001D10904103B0C0E01D10902083B0C0F18
:1009600001D109011B1F8C0F01D189009B1E002999
:1009700001DB49005B1E0446DC4021431C05A41832
:100980002022D21A90404B05C20AC90A1A430919FB
:10099000830501D1430818401623984002D3002054
:1009A000521C4141104610BDCA0FD20703D00B465E
:1009B000002140429941024B1A43C1E7004ABFE778
:1009C0000000D041F0B58B4C0F09254689B0BD43DE
:1009D0007BD01D092646AE43FAD00E465E40274026
:1009E000F60F3E43254071D024012142FBD0FF2465
:1009F000AD19A4042D1B039501252D05DB02DB0A8F
:100A0000C9022B43C90A29431E010901040F130F10
:100A1000050121431701880B820391432D098C4660
:100A2000A90B1E438A039543B30B9A0396433F09D0
:100A3000BA0B9403A74302962E467E430497B6460C
:100A40004E19D7190C460196544305977E43371B20
:100A50007646BF1B3601B646BE0B36190096764663
:100A6000BC043719009C01D3641C00946400002F5F
:100A700001D001263443029E049F754366467E439F
:100A80000496760034196E0034190094029C019E7D
:100A90001C196643751BAE46069465464519059CB0
:100AA00005956C43594375460891691A0191049E56
:100AB00001465143A41B0491611A009C0791E10671
:100AC00005D061090122114302E072E06EE0610984
:100AD000089D00272C0A2D066918049D7C412A0ACE
:100AE0002D066918019D6241AC0DAD026D1854418F
:100AF000079A910D920255196141029A6446584332
:100B00005443069B059A5A43121A131B9A0E9B01D3
:100B10005B187A41010B0005C3185141220A2006D7
:100B200044195A419A4200D2491C01204002814294
:100B300003D315230226F64302E014230326F643CB
:100B40002020C51AA9401746AF40DA400A43204684
:100B50000399D8400914731819055118039A38439A
:100B6000D2075140AC4009D00122944006D3002264
:100B7000401C5141002C01D1400840001E4A9342C4
:100B800012D3012203989206904207DB052040070A
:100B900009181A480143C012414004E003204007ED
:100BA0000818C10FC907002009B0F0BD0020F107E7
:100BB000FAE705180C464C4111486D42A04115D387
:100BC00094181A465A410E48644290410ED30120AF
:100BD0004A004005824209D35A00824206D3594056
:100BE000C90F084AC90700201143DDE70020064964
:100BF000DAE700000000FF07FE070000FFFFFF7FAD
:100C00000000E0FF0000F07F0000F87F0121C9052F
:100C10000123411842001B06D3185B0E0AD0C110F5
:100C20000722D206891840075242D14201D552000C
:100C300089187047090208D50146002A03D0C10F60
:100C4000C9070020704710467047420202D00020BA
:100C500002497047072109050143F4E70000F87FC6
:100C6000F0B5FF252D04C609C209FF2704462E4012
:100C70000137CB093E4348402A402B400746002A13
:100C80006BD0002B69D0AA4267D0AB4265D0002858
:100C900000DA32460125ED0529432C4309022002E2
:100CA000090AD21A4B0C7F24E31A434C000A7C44F5
:100CB000E35C7D242404121914145B00A2188842FA
:100CC00001D3521C00E0400049420C465C43241111
:100CD0005C43DB016415E318040A5C43C502200D84
:100CE0000C4644436419250A5D432303EC0C0D466E
:100CF000654300030019EB184C42A34201D35B1873
:100D0000401CD4052018002B07D05B00C91804D361
:100D1000401C002901D1400840003F2189048A423B
:100D200009D3002A08DC1106090F04D00321490762
:100D30004018C00FC007F0BD0122410012068918FB
:100D40007F2252069142F6D205214907C84201D5B9
:100D50009010F0BDFF20C005F0BD002F00DA324634
:100D60001648AA4207D2AB4205D21902090E17D083
:100D7000F80FC007F0BDFF2563002D06AB42F9D880
:100D80004900A942F6D8AB4201D1A942F2D0A9420A
:100D900001D1002101E061004908D0050843F0BD00
:100DA0001102090EFBD0FF200243D005F0BD0A4618
:100DB0000146104654E70000126200000000C07FA8
:100DC00010B501469E240002CA15A307002A02D0CE
:100DD0001843002A04DBA21A002A0CDDD04010BD03
:100DE0001206120E01D140004008A21A03D4D040CE
:100DF00040420028F3DDFF2248001206904201D94C
:100E0000002010BDC817C043584010BD1F22030C5E
:100E100002D10F2200041CD0030E01D10002083AB7
:100E2000030F01D10001121F830F01D18000921E18
:100E3000002801DB4000521ED20551180212511841
:100E40001922904004D3491C002801D149084900C7
:100E500008467047C10FC90700D0404201229207DF
:100E60001143D3E701218907D0E7FEB505461046B7
:100E70000C46184373D0AE468C460020AD1A01468E
:100E80009C4167D36646002701243D46B61A9D4122
:100E900002D313463A462124654676462F04360C83
:100EA0003E432D0CB61A9D4104D3150C1B042B4355
:100EB00012041034654676462F06360A3E432D0A44
:100EC000B61A9D4104D3150E1B022B43120208349F
:100ED000654676462F0736093E432D09B61A9D41D1
:100EE00004D3150F1B012B431201241D65467646C2
:100EF000AF07B6083E43AD08B61A9D4104D3950F1F
:100F00009B002B439200A41C65467646EF077608AB
:100F10003E436D08B61A9D411AD392185B41641C7A
:100F200016E00018764665464941B71A9D41019181
:100F3000009009D36046B11A98418E4684460098C5
:100F400001990025401C6941DD0752082A435B08CE
:100F5000641EE6D57246634603B0F0BDFFE700208D
:100F60000146C046C0462A462346F5E7754600F0CE
:100F700025F8AE46050069465346C008C0008546C0
:100F800018B020B5FFF7EEF860BC00274908B64658
:100F90000026C0C5C0C5C0C5C0C5C0C5C0C5C0C588
:100FA000C0C5403D49008D46704710B50446C04657
:100FB000C0462046FFF7C1F810BD0000004870474A
:100FC000A406002001491820ABBEFEE7260002005F
:100FD000704770B58C180578401C6B075B0F01D10A
:100FE0000378401C2A1106D10278401C03E00678E1
:100FF000401C0E70491C5B1EF9D12B0705D4002341
:10100000521E0DD40B70491CFAE70378401CCB1A12
:10101000921C03E01D780D70491C5B1C521EF9D513
:10102000A142D8D3002070BD10B51C48C06A03216E
:1010300008431A49C8621A4800F090FF184800880F
:10104000401C174908800120164988701348403811
:101050000089154948842220085E00F083FE12486A
:101060000C21415E002903DB01460C20085E03E0F1
:101070000D480C21415E48420C4900228A5E904294
:101080000ADB00210A4803F041F80A4800884008BA
:101090004000401C0749088010BD0000400401408A
:1010A00040010020300100205001002000050020F8
:1010B000000701401C00002070B505460C460121C8
:1010C000080203F05BFC2088A866A0788002618A91
:1010D0000843217D09030843E18809010843217C75
:1010E0000902084386B26E652089618909010843B7
:1010F000A18909020843E18909030843286570BDF5
:101100008520C001024908608520486070470000C2
:1011100040040140024803490860222048607047AB
:101120002222000040040140002101804180818092
:10113000C180018141818181C1810182418281829D
:10114000C18201834183704700B587B06846FFF7CD
:10115000EBFF0121684601800021418005210181CA
:1011600000214181012141820021818201820121EE
:10117000018069460D48FFF79FFFFF200B49403172
:10118000C86208464069C9140843084940314861AB
:10119000FFF7B6FF0648074988620520000281056F
:1011A000886100200349886207B000BD0004014047
:1011B000837A0000800000400CB54621095A194A84
:1011C0001288891A0AB269460A804821095A154AC2
:1011D0009288891A0AB269464A8000228A5E1249B8
:1011E000496A4A43D11309B201806A460221515E1D
:1011F0000D4A526A5143C91309B24180018842889D
:101200008918494209B281800221415E0422825E2E
:10121000891A064A5143C9130AB2428201880182DF
:101220000CBD0000000401403C020020E749000022
:101230000146044A12884A43024B9B781A411046E1
:1012400070470000980400200146044A12894A436E
:10125000024B9B7A1A411046704700009804002008
:1012600010B5174CF521206E8900001460841548D4
:101270001022C08E48431449800A8A5E1349801A9E
:101280000861084600F03EFF002801DD002106E06D
:101290000C49182240318A5E5142814201DD21838E
:1012A00000E020831821615E401A0849143108616A
:1012B000084600F027FF60831820205E10BD000064
:1012C0007800002050010020180300207C06002038
:1012D000F8B503884288484C991A09B22181808860
:1012E000484E121AC01A12B2628100B2A081081AC6
:1012F000424B511A58430014594309144218E081D3
:101300005242218212B26282891A3D4A51430A1422
:10131000A282316B4843C013514300B2C9136083AA
:1013200009B2A18300F0C0F9374A6178128800251C
:10133000521E80B2914202DA491C617011E0657060
:10134000A188411A09B2E1800A03616A521A121196
:1013500051182E4A6162128809135143C91221841F
:10136000A0801A211C22615EA25E494352438A1862
:1013700027490A63496BE1836288264F801801225E
:101380009203801A2083FD82B9820004B06130622A
:101390002020205E0A214843FFF756FF1E49606364
:1013A000498B41431D48016002F01CFD384603F0A3
:1013B00075FA384680300090006B80470098194BD2
:1013C0008561E08B0104F967FD82B882E0821448F0
:1013D000B1690160606B02031A60134A4003106236
:1013E0000E4800680818001404F036FBF8610F4935
:1013F000208C8880F8BD0000EC00002056550000CD
:10140000CE9300003C0200207E00002080000020DF
:10141000000B014050010020EC050020B800002026
:10142000B4000020E40000200C0600201803002077
:1014300072B6194A10201221105E515E4043494392
:10144000411816480163406B62B601041448826A71
:101450008B1A1B129A1813148262C26A891A4913D2
:101460008918C16209145A1A1304026B9B1A1B12C1
:101470009A18026310140B4A2023D35E8B4208DDB6
:10148000002800DA40422221515E884201DA012020
:1014900000E000209077704750010020000B0140D1
:1014A000EC000020180300201CB503201A494860F6
:1014B000084640680221084000282BD000210091F6
:1014C00001910FE01448406902210840002804D02F
:1014D00068460078401CC1B2009168460079401C03
:1014E000C1B20191684600790528EBDB68460078B7
:1014F00001280EDB0021094802F008FE30200749D0
:10150000803148610648008802218843801C0449D4
:10151000088000BF1CBD0000000201400007014020
:101520001C00002010B504460121082003F060FAD9
:1015300060694002A16C09020843A169490008439F
:10154000616C08432E490860206800016168C90089
:101550000843A16808432A498860E069C001216AFC
:1015600089010843616A49010843A16A09010843E6
:10157000E16CC9000843216D89000843616D490091
:101580000843A16D08431E49C860606BC001A16B90
:1015900089010843E16B49010843216C09010843B3
:1015A000616EC9000843A16E89000843E16E4900DD
:1015B0000843216F084312490861124812498862A2
:1015C000C805406911490840E16A09030843E16818
:1015D000C9020843E16D090208432169C9010843B2
:1015E000216B09010843216E890008430121890705
:1015F000486100200449886203200149486010BD09
:1016000000020140837A0000800000404380000017
:101610000021016001214160002181600121C16040
:101620000021016141618161C161016241628162A8
:10163000C162016341638163C16301644164816488
:10164000C164016541658165C16501664166816668
:10165000C1660167704700B59DB06846FFF7D8FFC7
:10166000012001900021400303F088F90121880343
:1016700003F084F900200090029001200690099068
:1016800000200A9002200C9003200B900020119063
:101690001590169002201890052017906846FFF7C5
:1016A00041FF1DB000BD0000F8B54C1C6410A646FB
:1016B000CA030CB20092A446684A694B4C42002807
:1016C00067DB451C6F10C50306B2002931DB884279
:1016D0001ADB002811D00098C01910625662906A77
:1016E000C1094900CA185288595A4006521A400E78
:1016F00042434032D0090818ADE0002902D0012051
:101700008003F8BD0020F8BD7046281810626046BE
:101710005062906AC1094900CA185288595A400655
:10172000521A400E42434032D00908180121890361
:1017300090E0A04216DB002812D0E003C01910622E
:101740005662906AC1094900CA185288595A40061F
:10175000521A400E42434032D009081840427AE003
:101760004048F8BD601C40102818106220B250623A
:10177000906AC1094900CA185288595A4006521A3B
:10178000400E42434032D009081801218903401A13
:1017900061E001254042ED0300292EDB884215DB84
:1017A000441C009964100919116200B25062906AD9
:1017B000C1094900CA185288595A4006521A400EA7
:1017C00042434032D0090818281A44E0C103704649
:1017D0000818106260465062906AC1094900CA1830
:1017E0005288595A4006521A400E42434032D0099C
:1017F00008180121890340182DE0A04215DB411C87
:10180000E40349106118116200B25062906AC10984
:101810004900CA185288595A4006521A400E42438B
:101820004032D0090818401B15E0C103601C40106D
:101830000818106220B25062906AC1094900CA18A3
:101840005288595A4006521A400E42434032D0093B
:1018500008180449081A00B2F8BD0000000B014046
:10186000246C000000C0FFFF10B50A480A498862D6
:10187000C8050069C9130843C90308614B2000016A
:1018800003F0CEF8044800680449084302490860A0
:1018900010BD0000837A000080000040FF010000BE
:1018A00016481021415E1422825E91420EDD008AAC
:1018B0001349C98A401A01B2104801821021415EC1
:1018C0001422825E914201DC818A01820B48102140
:1018D000415E1422825E91420EDC008A0849898AA8
:1018E000401801B2054801821021415E1422825E37
:1018F000914201DB818A0182704700009001002043
:101900007C02002016480E21415E1222825E914226
:101910000EDDC0891349C98A401A01B21048C1813D
:101920000E21415E1222825E914201DC418AC18118
:101930000B480E21415E1222825E91420EDCC0896C
:101940000849898A401801B20548C1810E21415ECB
:101950001222825E914201DB418AC1817047000000
:10196000900100207C02002010B504464E20015F4B
:101970000C20205E091A802001515020015F0E22A8
:10198000A25E891A9C2001512046703000F0CCF8EC
:10199000A08220468C3000F0C7F8E08202F022FAE4
:1019A00010BD000010B586B0002472B60020574963
:1019B000486108464069C914084354494861FFF723
:1019C0009FFB002052494885002151488185C185EF
:1019D00002F00AF801214F4802F098FB0020059020
:1019E00002E00598401C05904B4905988842F8D3C1
:1019F0000020009001900490039000242DE04748BF
:101A00004249886100BF4148C06AC007C00F002832
:101A1000F9D03E48C06A032108433C49C8620846E1
:101A20004069C9140843394948613849403900229E
:101A30008A5E00988018009004228A5E01988018BF
:101A4000019008228A5E02988018029004228A5E21
:101A5000039880180390601C84B2012040028442E5
:101A6000CDDBFFF771FBFFF74BFB62B6009840122E
:101A700001B227484030C1800198401201B2244889
:101A8000403001810298401201B22148403041812A
:101A90000621415E002903DB01460620085E04E0C2
:101AA0001B4840300621415E48421D49884223DCE4
:101AB000174840300821415E002903DB0146082019
:101AC000085E04E0124840300821415E4842144953
:101AD000884211DC0E4840300A21415E002903DBB8
:101AE00001460A20085E04E0094840300A21415EB0
:101AF00048420B49884207DD0A480088FF2101312E
:101B0000884340180749088006B010BD40040140D2
:101B10005001002000070140FFFF0700A55A000008
:101B2000AC0D00001C00002010B501464C690B698B
:101B30001B1B0C8963431A464C890B6963431401D0
:101B40001A19CB689B18CB600C68CB68A34202DDE6
:101B50000B68CB6005E04C68CB68A34201DA4B68A8
:101B6000CB60CB6818140B694B6110BD10B50446EF
:101B70000121C80202F002FF012080074068607066
:101B8000284829498862C8054069217849000843E6
:101B90000121890748612548234988626078012826
:101BA00010D123490870FF20C13002F0A1FC00B21F
:101BB0001F494880FF20C53002F09AFC00B21C4942
:101BC00088802DE0607802282AD1A078002811D1E1
:101BD000022017490870FF20C13002F089FC00B2D2
:101BE00013494880FF20C53002F082FC00B2104942
:101BF000888015E0A078012812D103200C490870D4
:101C0000FF20C13002F074FC000C00B2084948808B
:101C1000FF20C53002F06CFC000C00B20449888043
:101C200010BD0000837A000080000040FFFF00002C
:101C30003600002030B50146002200230020124C5F
:101C40002478022C01DC552304E00F4C2478032C6B
:101C500000D135230C465C43220BFF2A00DBFF2218
:101C6000094D02242C5F54436412AD88641920B2DC
:101C7000002801DA002002E0FF2800DDFF20012417
:101C8000A407E06230BD00003600002010B5044615
:101C900003212046FEF7F6FA10BD08B56846FFF7A7
:101CA000F5FF0020694688706846FFF75FFF012056
:101CB000C002FFF7BFFF08BD7047000070B5214E9E
:101CC0003069002800DA40421F4C0421615E1F4A3F
:101CD0001F4B0025884206DDD08AD883908A9883DE
:101CE0000120608007E04910814204DD508AD883DA
:101CF000108A9883658017480079042802D200F082
:101D0000E5FF35611448A16C4143306942008018F9
:101D100008188012A06400D54042104A01218902AF
:101D2000904201DC61810AE00D4A904201DB65814D
:101D300005E00A4A524280188010081A608100208B
:101D400070BD0000C0020020780000203C0200208E
:101D50000C06002040010020FD0300006626000064
:101D6000663600000A490122896A4143C8130949BD
:101D7000120600B20A624862896A074A89B29183F0
:101D8000064AD086064A5143064A091351647047F1
:101D90003C020020000B0140EC0500205001002017
:101DA000354F020078000020F0B503460D460021B3
:101DB00000240020244E254FBE62254EB24217D18A
:101DC000244E224F40373E612349244C16464E4054
:101DD000664030460668224F3E40066001263604C3
:101DE000736006688F073E430660002100240020D0
:101DF000174EB24215D1174E144F40373E61194964
:101E0000194C16464E4066403046184E0660BE13CA
:101E1000366876007608BF133E6000220021002459
:101E200000200026094F40373E61BE133668760019
:101E30007608BF133E600022002100240020002607
:101E4000024FBE62F0BD0000837A000080000040B7
:101E50001F360D9ACA8F00000A060CB01530002AF2
:101E6000FF7FFF7F1A3401B015020D2ABADC5476C9
:101E700008B50E480078012816D10D48C078002812
:101E800012D10A49087072B60A4A00213D20400268
:101E9000FFF78AFF08480023084A042100903D20EC
:101EA000400202F07FFA62B608BD00005000002038
:101EB000400100201F360D9A0CA4FD9A440000201A
:101EC00021492248C1622248818920481038018175
:101ED0001F48C1891D48103841811E49703841672B
:101EE00048421A4980390867002118488038C1677C
:101EF0001748018915480C3001811548418913485C
:101F00000C3041811349416049420C38C1600021C5
:101F10000C30C16010490C38016301212038017375
:101F20007D20400109498039C88600210748403892
:101F300001839621743001814221418196211C3018
:101F40000181422141817047FE5F0000D0010020E5
:101F50003C020020000090E8E93900003EB505464B
:101F6000614C4620005B61490988401A01B268460D
:101F700081804820005B5D498988401A01B268462B
:101F8000C1800421415E5A48406A4143C81300B2EF
:101F9000208069460620085E5549496A4843C013B7
:101FA00000B26080208861884018404200B2A08062
:101FB0000220205E0421615E401A4E494843C0134E
:101FC00001B26182208820821221615E1C20205E85
:101FD00041431020205E1E23E35E5843081AC013BD
:101FE00000B2A0811020205E1C21615E48431221B6
:101FF000615E1E23E35E59434018C01301B2E181C4
:102000002879801E030003F0E0FE0F670A094C6B7D
:102010000B6B596B6B6B0D6B6B0C6B0000BF00BFD8
:1020200000BF00BF2046FFF79FFC204602F036FCB1
:102030002879032822D13048007802281EDA2E4859
:102040000078401C2C4908702C48274948852B49AA
:10205000963925488185FF218C31C185408D4042CC
:1020600000B2214908860846808D404201B21E48D0
:102070004186C08D404201B21B488186B02108597B
:10208000804702F0F7F81A49096A090C08B203F010
:10209000E3FC694600900988A18369464988E18389
:1020A0001FE0124800881649088010488088488040
:1020B0000E488089888001F08FFF12E0FFF7B8F9A1
:1020C000002060850021A185E18520866186A186AA
:1020D000B0210859804704E0B0210859804700E04A
:1020E00000BF00BF3EBD00005001002000040140C1
:1020F0003C020020E74900002E000020B70200004B
:102100002401002030B50188438904690A04C568A8
:1021100081886343EB180904C360934201DD1346D1
:1021200002E08B4200DA0B46C36000894443200181
:102130001818904201DD104602E0884200DA084695
:10214000001430BD10B521480021415E052905DA93
:102150000088401C00B21D49088002E001201B4994
:1021600008801A490020085E030003F02EFE062CAA
:10217000040F1D2A2B2C1648807F002805D11549F5
:102180002220085E144900F0CBF91DE013480079C5
:10219000072808D10F4A0C21515E114A114B506893
:1021A000114A00F027F90FE00C480079072807D101
:1021B0000B4A5168074A0C20105E0C4A00F018F8D0
:1021C00002E001E000E000BF00BF10BD22000020DF
:1021D0009805002050010020280500204001002023
:1021E000C00200203C05002016000020320500201F
:1021F00070B505460E461446002D01DB284600E06A
:10220000684213490A228A5E90420DDA002E01DBF1
:10221000304600E070420E49C968884204DD2088DB
:10222000401C00B2208001E0002020800020205EC1
:10223000C8280CDB0021074801F068FF002020803F
:10224000054800882021884320300349088070BD5C
:1022500000050020000701401C00002010B50120EF
:10226000800703F007FD0446FEF7E2FF00B238499D
:1022700008800020374908804880888036490880D7
:102280004880364803F022FD00B231494880344886
:1022900003F01CFD00B22E498880002031490880DF
:1022A000314803F0E7FC0446FEF7C2FF00B22849BC
:1022B00048812E4803F0F4FC0446FEF7C5FF24498C
:1022C000C86000202A4908804880C880294803F057
:1022D000D1FC0446FEF7ACFF00B21D490882264837
:1022E00003F0DEFC0446FEF7AFFF194948612348BE
:1022F00003F0D6FC0446FEF7A7FF154988611A488B
:1023000003F0B8FC0446FEF793FF00B210490884BE
:102310001B4803F0C5FC0446FEF796FF0C49C86154
:1023200000204884174908801749087008824882AD
:102330008882488048608860C86014490880488066
:10234000888013490880134908804880C88010BDE0
:102350000005002050010020280500200000BE4399
:102360000000664332050020CDCCCC3D0000344354
:102370003C050020CDCC4C3F008022450000484267
:102380000000F0415A050020E8040020160000205B
:10239000500500206405002010B500200C4908807D
:1023A0000C4988800C4988800C49888008810C4938
:1023B00088800C4988800C4803F088FC00B20B49E7
:1023C000C8800B4803F082FC00B20849088110BDA8
:1023D0001C000020320500203C050020460500209E
:1023E00028050020500500200000B943000500200A
:1023F00000007043F8B505460F4616461C460620F9
:10240000205E282804DAE088401C00B2E0807FE0EB
:10241000002D01DB284600E068423E4949698842B8
:1024200008DC002D01DB284600E068423949896953
:10243000884219DA0020205E642804DA2088401CD3
:1024400000B2208012E00021334801F05FFE00203E
:102450002080324800881021884310302F4908809E
:1024600001202C49488401E000202080002D01DB60
:10247000284600E068422749C969884225DA002FCA
:1024800001DB384600E07842224920228A5E9042F1
:102490001BDD0220205EFF219131884204DA608832
:1024A000401C00B2608012E000211B4801F02EFEAB
:1024B0000020608019480088102188431030174997
:1024C000088002201349488401E000206080002039
:1024D000305E104910228A5E90420BDC0220305E92
:1024E00010228A5E904205DC0420305E10228A5E53
:1024F00090420DDD0021084801F008FE07480088E1
:102500001021884310300549088003200149488480
:10251000F8BD000000050020000701401C0000205D
:1025200070B505460C461D490220085EA84204DC31
:102530002088401C00B220800CE018490420085E6E
:10254000A84204DD6088401C00B2608002E00020E8
:10255000208060800020205EC8280CDB002110480D
:1025600001F0D4FD002020800E480088042188431B
:10257000001D0C4908800220205EC8280CDB0021C9
:10258000074801F0C3FD002060800648008808214C
:10259000884308300349088070BD00000005002012
:1025A000000701401C000020002801DA404200B270
:1025B000002901DA494209B2002A01DA524212B274
:1025C000884202DB904200DB0123814202DB914220
:1025D00000DB0223824202DB8A4200DB032318462F
:1025E00070470246002001235B031146814089B2F7
:1025F000994203D8401C00B20D28F6DB704700005A
:1026000010B500201249088248826420C882000167
:10261000888210480880AF20800048800E4888805B
:102620000E48C8800E4848630E48886396200E49BD
:10263000C8860020888600F01BF8FFF741FC1E20AA
:1026400009498881052088730848488610BD000024
:102650003C020020941100000A0D0000E02200005E
:10266000106000003C6000000C06002066060000C0
:10267000F0B5FF4E0A20756B8BB0285EB46BFEF789
:10268000E9FB0746FB49206903F05CFC6169FEF742
:10269000E7FAA169FEF7E4FA3946FEF7E1FAFEF738
:1026A0008FFB70620020205EFEF7D4FBF24F00909B
:1026B0003946206903F046FCE169FEF7D1FA00993A
:1026C000FEF7CEFAFEF77CFBB062012000076968D6
:1026D000FDF7E6FDF0620020205EFEF7BBFB0090F8
:1026E0003946206903F02EFC216AFEF7B9FA0099F9
:1026F000FEF7B6FAFEF764FB3063A2896E686420C9
:102700004243F117F00849070143D3177007FDF75B
:1027100065FD0905000B0843D84E642130836868C5
:10272000FDF7BEFD0004A189FDF7BAFD70832A699B
:102730001921D317009317464904E86803F015FBE5
:102740003A46009BFDF74AFDA2890023FDF746FDAE
:102750000121C903081A3060C949E868695E03F0BD
:1027600004FB020F090111430022A25E0001D317EE
:10277000FDF734FDC349C86564216868FDF790FD25
:10278000069004900A20285E0290C01703900498D7
:102790000026C017059068690090C0170190A05FDF
:1027A0000890C0170990324605990498FDF7EEFC91
:1027B000019B009AFDF7FAFC039B029AFDF7F6FCD9
:1027C000099B089AFDF70AFDAF4A0023FDF706FDB5
:1027D000AE49884202DA761C36B2E4E7A94A90652F
:1027E0009684AB48029000980199C70C2A694E0361
:1027F0003E43D31740033146FDF7F0FC80B2069FFD
:1028000000260090F8170390A089019038463246C0
:102810000399FDF7BBFC012252030023FDF7DEFC08
:102820000023019AFDF7DAFC7D218901884202DA52
:10283000761C36B2EAE7C1170023029AFDF7B6FC10
:102840000023009AFDF7B2FCCA00410F8B481143E8
:1028500041601E3E012146738902818200262A6959
:102860000020D31700931746205E8A4903F07DFAB3
:102870003246FDF78BFC3A46009BFDF7AFFC0A277A
:10288000EF5FFB173A46FDF7A9FCA2890023FDF78D
:10289000A5FC7D21C901884202DA761C36B2DEE74A
:1028A0007D4903F062FA0903000D084373490E3EA7
:1028B0008860084686730020205E784AA9695043E4
:1028C000FDF7E4FC6F4948650020205EFEF7C2FA80
:1028D00006467349206903F035FB216AFEF7C0F90B
:1028E0003146FEF7BDF9FEF76BFA61490863002037
:1028F000205E6C49484302140A200092285E6A490F
:10290000484306147D21A089C900FDF7BFFC674933
:10291000F317888356480021008832460593FDF757
:1029200045FC2A69D317FDF741FCFF23009A873342
:102930005A430092D2170192019B009AFDF74EFC78
:102940004B4980B208810490A089FDF7F6FF0391FE
:10295000029047490498498803F01FFAFEF724F8CB
:102960000022534BFEF72EF8039B029AFDF73EFD23
:10297000FDF796FF3E49324648810846008800210F
:10298000059BFDF713FC6A69D317FDF70FFC019B4C
:10299000009AFDF723FC87B235488781A089FDF7AF
:1029A000CCFF0646324800914188384603F0F5F9DD
:1029B000FDF7FAFF00223E4BFEF704F83246009B7B
:1029C000FDF714FDFDF76CFF29490822C881084670
:1029D000825E2C480A2342850846C35E29480E269B
:1029E000838508460C21415E2648264FC185204834
:1029F000865F244806861E488088424392127A8663
:102A00001B4AD28853439B12BB8603464B43981202
:102A10003946C8867243901208871548254B0289AB
:102A20001648583002811248418914485830418173
:102A30001C30028141811F49642088801D4A0A217F
:102A400011837D22D2001A801A461081918111468D
:102A500008827D20C000888200204880488148820A
:102A6000C881C882C8804883205EA021484323E0F3
:102A70003C0200200046E24600002047EC05002012
:102A80000A00000078000020CFFD000010270000A1
:102A900010C9000040420F002F880600F2660100B6
:102AA00080908A47CE9300000A6A01001803002034
:102AB0000000244058040020010C794E0846B183E0
:102AC000FFF78FFDF08300230146E35EA020434320
:102AD0001027781AC340B38300203083FFF781FDAD
:102AE0007083391AE1200001C84030830A20285E33
:102AF0006C494843800C3080FFF773FD01467080BD
:102B00000A20285E674A50431222511AC84030807A
:102B10000020205E64494843800DB080FFF761FDCE
:102B20000146F0800020205E5F4A50431622511A71
:102B3000C840B0806868000C3081FFF752FD70819A
:102B40006B68381AC34033810A21695E5748FDF724
:102B50009DFB010C564E08463180FFF742FD708008
:102B600000900A21695E5148FDF790FB00990246EA
:102B7000781AC24032800021615E4E48FDF786FB24
:102B8000000CB080FFF72DFDF08000900021615E09
:102B90004848FDF77BFB01460098381AC140B180D8
:102BA0003F0338466968FDF771FB81B23181084601
:102BB000FFF717FD70813B46834018466968FDF7B3
:102BC00065FB308112203083FFF70BFD8740708357
:102BD000E12109013846FDF759FB30830021615E90
:102BE0000A20012741433F033846FDF759FB81B2D4
:102BF000B1830846FFF7F5FCF08300210246615ED1
:102C00000A20414397403846FDF740FBB0832A4EE7
:102C10002A49F08E16224843000CF086B08E8910A7
:102C200048432749001488800420B0730020205EA8
:102C300069695043FDF734FB0A21695EFDF730FBFB
:102C400080B2411EB08113290DD20020205E1D4AA2
:102C500069695043FDF724FB0A21695EFDF720FBFB
:102C6000B081062010E0142801D300200CE00020E1
:102C7000205E154A69695043FDF712FB0A21695E1F
:102C8000FDF70EFBB0810A20B0730D490220C88009
:102C9000A0890A225043800908810BB0F0BD0000D2
:102CA000780400205B230000181700008DF61C003C
:102CB00098040020B172C5020C060020402F0200CB
:102CC000780000206A050000A55600000748002291
:102CD000418E01814260818E0B045B428361090455
:102CE000026241610248C266704700000C06002083
:102CF000780000207047F0B50B4600220024002524
:102D0000002100BF53E00126964034461E6826404D
:102D10003546A5424AD11E79002E0CD10168012604
:102D20009640314301604168012696400F46B74303
:102D30003946416018E01E79012E0BD1016896409A
:102D40000F46B7433946016041680126964031433A
:102D5000416009E01E79022E06D1416801269640A5
:102D60000F46B743394641605E79012E04D10169AF
:102D70009640314301610CE05E79022E09D05E7904
:102D8000002E06D10169012696400F46B743394609
:102D9000016181699E68012E02D19640314304E0B1
:102DA000012696400F46B74339468161521C102ACE
:102DB000A9D3F0BD30B50C46230003F006F8100986
:102DC0000F171E252B333A41474F565D636B7279BF
:102DD000016A394D29408B1803626AE0016A364D59
:102DE000E13D294013015B18036262E0016A334D43
:102DF000294013025B1803625BE0036A1905090DA1
:102E000013035B18036254E0416A2B4D29408B1871
:102E100043624EE0416A284DE13D294013015B18B1
:102E2000436246E0416A254D294013025B18436224
:102E30003FE0436A1905090D13035B18436238E04C
:102E4000816A1D4D29408B18836232E0816A1A4DD8
:102E5000E13D294013015B1883622AE0816A174D26
:102E6000294013025B18836223E0836A1905090D68
:102E700013035B1883621CE0C16A0F4D29408B1855
:102E8000C36216E0C16A0C4DE13D294013015B1895
:102E9000C3620EE0C16A094D294013025B18C36288
:102EA00007E0C36A1905090D13035B18C36200E04C
:102EB00000BF00BF30BD0000F0FF0000FFF00000C9
:102EC0000246002093680B40002B01D0012000E057
:102ED0000020704741637047016370470021016023
:102EE00001714171816070470EB56846FFF7F6FFCA
:102EF0000121684601717D204002009069461A4810
:102F0000FFF7F9FE032209211748FFF753FF0322B9
:102F10000B211548FFF74EFF03220C211248FFF743
:102F200049FF03220D211048FFF744FF03220E2121
:102F30000D48FFF73FFF03220F210B48FFF73AFF31
:102F40006846FFF7CBFF002168460171FF20013082
:102F5000009069460448FFF7CEFE0022082102488F
:102F6000FFF728FF0EBD00000008014010B53748EC
:102F7000C08E000136490968401A80123449096838
:102F800040183349086008460068001100B2314912
:102F900008800020085E3049884204DB012080025E
:102FA0002E4908801DE02B490020085E2C498842EC
:102FB00013DB284A0021515E274A511AFF2245326D
:102FC0005143084619214901FDF76AF90121890297
:102FD000081A00B22149088003E0AF2080001F4991
:102FE0000880204802F05CFE0446FEF72DF91B49DC
:102FF00000228A5E5043800A1B4908601B4802F089
:103000004FFE0446FEF720F9144900228A5E504321
:10301000800A15494860164802F042FE0446FEF751
:1030200013F90E4900228A5E5043800A0E498860D7
:10303000104802F035FE0446FEF706F90749002263
:103040008A5E5043800A0849C86010BD50010020C4
:1030500064000020600000200A0F000062000020D1
:10306000EA0B00000020B344DC0500200000E1442E
:10307000008050440000FA447047000010B5044638
:103080000121022001F0B4FC2088A1780904084342
:10309000E178090508432179090608436179490661
:1030A0000843A17989060843E17909070843217A91
:1030B00049070843217C8907084303490860E06801
:1030C000C8600020486010BD0003014000B585B015
:1030D0000121022001F08CFC684600F015F8012166
:1030E00049026846018000218170C170012101718F
:1030F000C1710172034803906846FFF7BFFF05B036
:1031000000BD0000007C9200084901800021817010
:103110000121C1700171C171002141718171017280
:103120007D21C900C160002101747047FF030000C8
:1031300010B572B62748284988622848284908608F
:103140000F20800248600120000400680121C904AA
:103150000843C91008600121080201F049FCFDF78D
:10316000F3FF00F0C3FD02F03FFDFFF7BDFEFEF7E9
:1031700094FD00F0B5FFFEF76EFAFFF7A7FF02F02F
:103180005DFC642001F04CFC01210A2002F036FEB7
:103190000221072002F032FE0221084602F02EFE34
:1031A0000021092002F02AFE0221002002F026FE62
:1031B0000221012002F022FE0A2002F013FE00206C
:1031C00002F010FE012002F00DFE092002F00AFEBE
:1031D00062B610BD837A000080000040B4A60000F3
:1031E000000C014010B50121BE484172BE48007973
:1031F000072819D1BD480069BD49884214DDBD4882
:103200000088002810D1B7482038007801280BD159
:10321000B4482038008A7D210901884204DB01205E
:10322000B0492039887403E00020AE492039887401
:10323000AC48007C002816D1AA4820384088401CA1
:1032400080B2A8492039488006280CDD0121A54814
:1032500001740020A34920394880A248407C401CCA
:10326000C1B2A04841749F48407C02286ADB00211B
:103270009C48417432209B49203908710120087014
:103280000020C873488097488078401CC1B2954898
:103290008170407A012812D192488078312802DD6D
:1032A0000021904881708F48807A322148438D49AF
:1032B000897840189049095C8A48C17212E08948AF
:1032C0008078632802DD0021864881708548807AF5
:1032D0003221484383498978491040188649095C5E
:1032E0008048C1727F482038807C012864D1012148
:1032F0007C4841704078012869D17A482038C06AFA
:10330000401C78492039C86208460079322822D109
:103310000846C06A898C884259D3002071492039F7
:10332000C8627048C07A01280DD110217348FFF798
:10333000D1FD00216B4841700120714908701421B2
:103340006848017243E010216C48FFF7C5FD002179
:10335000644841703BE06348203800793C281FD125
:1033600060482038C06A5F492039898C88422ED352
:1033700000205C492039C8625A48C07A012807D128
:1033800010215E48FFF7A6FD0021564841701EE05F
:1033900010215A48FFF7A0FD00215248417016E065
:1033A00010215648FFF798FD00204E492039C86289
:1033B00000214C4841700AE010215048FFF78CFD75
:1033C000002048492039C8620021464841704C48D5
:1033D0000078002814D04348007A012805DB4148D2
:1033E000007A401EC1B23F4801723E48007A002870
:1033F00006D110214148FFF76FFD002040490870B9
:1034000038482038807E0C2809DA36482038007F7A
:103410000C2804DA002033492039887705E00C2095
:10342000304920398876012088772E482038C07F9F
:1034300001280ED12B482038807F002809D12D4942
:10344000088001212F4800F061FE30202D49803195
:10345000486124482038807F22492039C877FF21DD
:10346000013126484038FFF72BFD1E492039C8742A
:103470000846C07C002806D00846807E401C88761E
:10348000002008770DE017482038C07C002808D1BC
:1034900014482038007F401C12492039087700204A
:1034A000887610482038C07E401C0E492039C876E6
:1034B0000846007D00280DD10846C07C012809D1AE
:1034C0000021084801742038C07E06492039487719
:1034D0000020C87603482038C07C0249203908758E
:1034E00010BD0000B805002040010020C0020020EF
:1034F000983A00001C000020606000004008014075
:1035000024000020000701405C48007801284DDCC1
:103510005B480078002822D15A480078012809D158
:1035200059485A494886102088630E2008641220A2
:10353000C86356E053480078022809D154485349DB
:10354000488614208863122008641720C86348E066
:1035500000204E49488688630864C86341E04848B3
:10356000007801283DD147480078012809D1494811
:103570004649488612208863102008641420C863D6
:103580002FE040480078022809D141483F49488649
:1035900019208863162008641B20C86321E00020DE
:1035A0003A49488688630864C8631AE0334800785B
:1035B000022809D138483549488605208863032008
:1035C00008640720C8630CE02C480078032808D161
:1035D0002F482E49488619208863162008641B202E
:1035E000C8632E48008A2949888608462030807A98
:1035F000C96B884206D825482030807A2349096C57
:10360000884205D22148008FC1B220482030817203
:103610001E493420085E32228A5E904213DD08463D
:103620002030807AC96B884227D218482030807AAF
:10363000312822DA15482030807A401CC1B2134864
:103640002030817219E011493420085E32228A5EEE
:10365000904212DA08462030807A096C88420CD9F0
:103660000A482030807A002807DD08482030807A18
:10367000401EC1B2054820308172704742000020D0
:10368000400000203F000020384A0000980500203C
:10369000B036000050460000786900000004014088
:1036A00070470000F8B5214F388A798A401805B272
:1036B000B88AF98A401804B2388B798B401806B260
:1036C000324621462846FEF76FFFC0B2012811D0CE
:1036D00002281CD01649281B4843C1137000401B08
:1036E000144A001B5043C013FDF7DEFF1149401878
:1036F000B881F8BD0E49A01B4843C1136800001BE8
:103700000C4A801B5043C013FDF7CEFFF0E7084979
:10371000701B4843C1136000401B064A801B504386
:10372000C013FDF7C1FF0449E1E70000B804002021
:10373000E7490000ABAA000055550000F8B5002489
:10374000374F384E25463849887A012863D1C87AE0
:10375000072860D2401CC0B2C87202F0DFFA3048BD
:103760008038418D49420186818D49424186C18D13
:1037700049428186386B80472D492C4808632C4884
:103780002C4A403802602C480863294801218038BF
:1037900000F0BCFCB560244A1068B1688142FCD3DB
:1037A0002148807F012813D01D48803845858585B4
:1037B000C585386B80471E4A1C4810631C491D484C
:1037C000403908601C481063B560B068C828FCD355
:1037D00002F06EFB02F06CFB11480121603841766B
:1037E000022181762038FDF7E7FC0F48C07A00F00F
:1037F000A9FD0F480021803800F088FCB5600A4A16
:103800005068B1688142FCD3D07A062803D1D572C2
:103810009572FFF747FF641CE4B2062C93D3F8BD02
:10382000D001002000030140B8040020ADDE0000FC
:1038300080070140FFFF0000CDAB000010B54F48EE
:10384000007801282DDC4E4800780F2805DA4C4816
:103850000078401C4A49087005E00F20484908706C
:10386000002048490870012189024748FFF728FBDA
:10387000464908700846007801280DD14448007870
:10388000002809D13E4800780F2802DA01203D497E
:10389000087000203A4908703C4800783C4908709C
:1038A0000CE036480078022802D13649087005E05D
:1038B00032480078032801D132490870402132484B
:1038C000FFF7FEFA002815D13248008832498842B5
:1038D00005DA30480088401C2E49088002E02E4856
:1038E0002C4908802B4800880A2845DD00202B49F8
:1038F000088041E029480088642804DA27480088C5
:10390000401C2649088025480088322811DD2148BE
:10391000008832280DDD1F4800887D21090188427A
:1039200007DA01201E4988700870002019490880B4
:1039300022E01A480088322813DD164800887D21CD
:10394000090188420DDB134800881349884208DCCE
:103950000120134988700220087000200D4908805A
:103960000AE00E480088322806DD0A48008832281E
:1039700002DA00200749088010BD00004200002044
:103980005900002040000020000801405B0000209A
:103990005A0000205C000020102700005E0000207C
:1039A0003C00002010B50E48406910210840002856
:1039B00005D10B4840692021084000280ED0002185
:1039C0000748803800F0A2FB3020054948610548CF
:1039D000008802218843801C0249088010BD000035
:1039E000800701401C0000200C48808D404200B23E
:1039F0000B4908800948808D88800848408D4042E6
:103A000000B208810548408D88810448C08D40423D
:103A100000B208820148C08D8882704750010020A2
:103A2000000701407047000070B505460C460121B3
:103A3000102000F0DDFFA649B020415120796179C6
:103A400089000843A17A09010843E17A4901084342
:103A5000A17989010843E179C9010843217B090261
:103A60000843617B49020843E8672088286360882F
:103A70006863E08B2862208C6862608CA862A08CEE
:103A8000E862607A0002217A084328673620005DE8
:103A90003721095D490008433E21095D890108433A
:103AA000E18AC90108433821095D09020843392127
:103AB000095D490208433F21095D89030843218BC1
:103AC000C9030843A02148513A20005D3B21095D0C
:103AD000490008434021095D89010843618BC90100
:103AE00008433C21095D090208433D21095D490263
:103AF00008434121095D89030843A18BC903084399
:103B0000A42148514C20005D4E21095D89000843E5
:103B10004A21095D090108434B21095D4901084318
:103B20004D21095D490008434F21095DC900084343
:103B30005021095DC90108435821095D0902084364
:103B40005721095D490208435A21095D890208434A
:103B50005921095DC90208435C21095D0903084335
:103B60005B21095D49030843A82148515320005DAA
:103B70005521095D890008435121095D0901084368
:103B80005221095D490108435421095D4900084358
:103B90005621095DC90008435021095DC901084348
:103BA0005D21095D090208435E21095D4902084360
:103BB000AC2148514220005D4421095D09010843C0
:103BC0004521095D490108434821095D89010843F0
:103BD0004321095D090208434621095D09030843A1
:103BE0004721095D490308434921095D89030843C9
:103BF0006867E08C2865208D68657420005BA86785
:103C0000E089A864208AE8641220205EA86314205A
:103C1000205EE8635F20005D6021095D4900084384
:103C20006121095D890208436221095DC9020843D7
:103C3000802148516320005D6421095D49000843EB
:103C40006521095D890208436621095DC9020843AF
:103C5000882148516F20005D00017021095D4901F4
:103C600008437121095D890108437221095DC90179
:103C70000843902148516720005D6821095D490093
:103C800008436921095D890008436A21095DC9006B
:103C900008436B21095D090108436C21095D490155
:103CA00008436D21095D890108436E21095DC90141
:103CB000084398214851074828640146842041510F
:103CC0008C204151942041510349B020415170BD95
:103CD000ADDE0000FFFF0000FECA000010B5044684
:103CE00076212046FCF7CEFA10BD000000B59FB04B
:103CF00001A8FFF7F3FF002168460172012141721C
:103D00008172C172002141838183C183234910A83C
:103D10000187002168460173417321498180C18078
:103D20001F49143941841F4981843021418581858F
:103D3000C185018641868186002108A88176C176E9
:103D4000017741778177C17710A88170C1700171C7
:103D5000C176017741778177C17718A8017010A8E3
:103D6000017501210172002141720121817200213E
:103D7000C17218A8C1700175C174012110A8C17366
:103D800041740021C17401A90748FFF74DFE0648A0
:103D90008030006A054988831FB000BDFF1F000006
:103DA00042040000DEFE000000070140B8040020CD
:103DB000094800780007000F084908700846007895
:103DC000032803DB00200649087003E0034800785D
:103DD00003490870704700004C0000204800002094
:103DE0003F000020F8B56F4D6F49E88E2A46D28E0D
:103DF0006D4B484316215A43695E12140014524217
:103E0000814201DD014602E0914200DA11460CB226
:103E1000664B644DDC841421695E814201DD0246FB
:103E200002E0914200DB0A4611B240436443604A1B
:103E30001985001B1063506B002900B201DB0A4694
:103E400000E04A42824203DD002900DC404218853E
:103E500056480A25455F5349002D72D00B46403322
:103E6000D889524C0204E06C1C26121A92111018C8
:103E70000214E064188A0304206D1B1A9B111818A1
:103E800020658E5F1E23CB5E3746194600144743DC
:103E90005643514343439819791AC013454AC913ED
:103EA00000B209B250438A03801AC01303B2C81883
:103EB000404200B286460E20205E0C224543A812E6
:103EC0003A4DA25E01242F7B94400126BE4036B2BB
:103ED0007642B4460E270A26EF5FAE5F24B27E43D9
:103EE000B5126D4200B22DB2A14201DB064607E0D9
:103EF0000E46614501DC2E4602E04643164136B2CD
:103F0000A34201DB034606E0634501DC2B4602E0E9
:103F1000434313411BB27146A64506DAE64501DC70
:103F2000284602E04843104100B27100C91A224AF3
:103F3000091A51430C142149181A4843051402E088
:103F4000FFE7002425461E48184E006A316C4018D1
:103F5000001401F081FD13492822C8611C23262783
:103F60001E20B25ECB5EF75F085E96469C464243DB
:103F70007B439A1A7843634677467B43C018C01345
:103F800003B2706CD2130F4E12B242437443D21379
:103F9000241312190A8343437543D8132A13801834
:103FA0004883F8BD50010020001301007800002074
:103FB000000B0140DA6E000056550000CE93000061
:103FC0003C020020E749000002480021C1608161F5
:103FD0008160704718030020F8B523480088002846
:103FE00033D0224E012831D0022839D003282CD3D7
:103FF00001211F4800F08AF81E4C0021A161F08ABF
:1040000025460204803DEA67E982A8821A4F1B48D0
:10401000B96900680818B8613862FFF7E3FE2846FE
:1040200000F03CFC206B80471549B8690860716B53
:10403000144B0A031A60144A490311620F490968B4
:104040004018001401F008FDE861F8BD07480A2196
:104050003830FDF73DF916200C49305EC860F8BDD8
:1040600000F0B6F8F8BD000000000020EC000020D1
:1040700000070140D00100203C020020B8000020D1
:10408000B4000020E40000200C06002018030020EB
:1040900001460420085EC2008868904208DA0023C6
:1040A000CB5E8868C01888608868904200DB8A60B0
:1040B0008868904208DD0223CB5E8868C01A886059
:1040C0008868904200DA8A608868C01000B2C880B0
:1040D0008868904201D1012070470020FCE7000071
:1040E00010B50121480200F049FC064806498862E3
:1040F000C805006980088000C90508610846006994
:10410000086110BD837A0000800000400A4BB02295
:104110001350012906D1A822125840231A43A8237C
:104120001A5005E0A8221258044B1A40A8231A502E
:10413000034BB02213507047ADDE0000BFFF0000FC
:10414000FECA00001F48006AC007C00F00280DD03B
:1041500001201C4908621C49C8811A48006908608E
:104160001848C068886000208882C8821548006AA4
:1041700004210840002823D0042012490862124874
:10418000C089002815D111488068491508400028C9
:1041900007D00D48808A401C0B4988820020C882C5
:1041A0000BE00948C08A401C0749C8820020888269
:1041B00003E0002004498882C88200200249C881A7
:1041C000704700000005014078050020000801400C
:1041D00070B5214D2148298A0181698A41810024D5
:1041E0001F4A18210460515E621F51438910C46048
:1041F00041602C836C83143004601A49C4604160B0
:10420000A98A0181E98A41811449174838390A4647
:10421000434209C11C32D46009C20B463220603BC4
:104220004C60D882114806890E8046894E8081896B
:104230001180C18951806C660D4AAC661168E966CF
:10424000846111612C661C610A212C67C1872C6472
:10425000FEF73CFD6C8070BD780000207C060020DD
:1042600090010020E0FCFFFF000070173C020020DE
:10427000C002002070B52B4B2B480C21595E826D7B
:104280000E24514320221C5FC56D825E6C43D20018
:104290006413151B254A491314684C43818C0C4147
:1042A0002919234C4942A14202DC6442A14200DAAE
:1042B000214609B28183C183D48B156A4C432C19E2
:1042C0001462958B64134D4329130C191460D18E1D
:1042D0008C4202DC1160490311621168C26E0C034A
:1042E000A41AA411A2181413C266124D0F4A2C610D
:1042F000203A528B104E5143C26B5218C263B261C6
:104300000164C18C018416201421185E595E40435B
:104310004943411809480163406B094908823262E8
:104320006C6070BD50010020780000200C06002059
:10433000E02E0000C00200203C020020000B0140E3
:104340001803002010B51549154B8C7F00229A5E8A
:10435000012C0DD00221595E1B885B185B421CB2F8
:10436000030001F032FD0708090C0F1215180800B0
:1043700040004018C28110BD0848028210BD0748A5
:10438000428210BD0548818210BD0448C18210BD23
:104390000248048310BD0148448310BDB8040020C6
:1043A00050010020F0B586B004460D460B9E01205A
:1043B000039000200290019000234548454FB862C9
:1043C000454886426DD14548424F40377861444860
:1043D0000290444801903046029F7840019F784007
:1043E00003461868404F38401860012000044460BC
:1043F00018680127FF063843186000260020029045
:10440000019000231146E81C800880000490059468
:1044100019E005988008800001273F04786008783B
:104420004F783F02C0198F783F04C019CF783F06FC
:10443000C01901273F04B860091D0498001F0490AB
:104440000598001D059004980028E2D11146E81C4B
:10445000800880000490059420E005988008800082
:1044600001273F04786008784F783F02C0198F78A1
:104470003F04C019CF783F06C01900900120000406
:10448000C7680098874201D000200390091D049856
:10449000001F04900598001D059000BF0498002897
:1044A000DBD100200B4F40377861B81300680F4F05
:1044B000384001273F04386000200290019000231B
:1044C0000026044FB8626846007B06B0F0BD0000CD
:1044D000837A0000800000400CA4FD9A358F000014
:1044E0000F045C6A03A0A0F0FF7FFF7FFFF7FFF7D8
:1044F000014672B6FF209130814201D2012000E0D6
:104500000020FF23E033994201D9012300E000237A
:104510001843002801D000207047012000040068E3
:104520000123DB0218435B01186059200006586024
:1045300018464160C2689520000658601846006819
:104540005B1198435B0118601046E5E710B5C7485A
:10455000807800284FD00020C44988700846007831
:10456000012804D002282DD0032842D136E0C048CB
:104570000078022807DBBF480078BF490870002098
:10458000BB4908701DE0BA480078012805D1002019
:10459000B9490870B649087013E0B7480078022896
:1045A00005DAB5480078401CB349087009E0B24804
:1045B0000078022805D10120AD4908700020AF49DC
:1045C000088017E0AA480078012806DCAA4800788D
:1045D000A84908700220A64908700BE0A44800789A
:1045E000022805D10020A64908800320A0490870B0
:1045F00000E000BF00BFA348807F00287ED19C4818
:10460000007800285BD19C480078002813D1402115
:104610009D48FEF75FFC02219B484038FEF75CFC9A
:10462000082199484038FEF755FC0121964840384A
:10463000FEF750FC19E190480078012813D1402181
:104640009148FEF747FC02218F484038FEF742FCB4
:1046500008218D484038FEF73FFC01218A48403848
:10466000FEF738FC01E184480078022813D140218C
:104670008548FEF72FFC022183484038FEF72AFCCC
:10468000082181484038FEF725FC01217E4840384A
:10469000FEF722FCE9E040217B48FEF71BFC0221EB
:1046A00079484038FEF716FC082177484038FEF775
:1046B00011FC012174484038FEF70CFCD5E06C4831
:1046C0000078012841D16D480088401C6B49088062
:1046D000084600886D49884202D100206749088059
:1046E000664800886A49884218DA022062490870E0
:1046F00040216548FEF7EEFB022100E0A2E062489F
:104700004038FEF7E7FB08215F484038FEF7E2FB40
:1047100001215D484038FEF7DFFBA6E00020564946
:10472000087040215848FEF7D5FB02215648403812
:10473000FEF7D2FB082154484038FEF7CBFB01219D
:1047400051484038FEF7C6FB8FE049480078022800
:1047500013D140214C48FEF7BFFB02214A484038A4
:10476000FEF7B8FB082148484038FEF7B3FB0121AB
:1047700045484038FEF7AEFB77E03D480078032817
:1047800073D13F480088401C3D4908800846008896
:104790003F4988420ED13F480088401C3D4908806F
:1047A0000020374908803B480088032802D10020B8
:1047B0003849088037480088002813D14021324802
:1047C000FEF788FB022130484038FEF785FB0821C0
:1047D0002D484038FEF77EFB01212B484038FEF77C
:1047E00079FB42E02B480088012813D1402126485C
:1047F000FEF770FB022124484038FEF76BFB0821CE
:1048000021484038FEF768FB01211F484038FEF779
:1048100061FB2AE01F480088022826D140211A485F
:10482000FEF758FB022118484038FEF753FB0821D9
:1048300015484038FEF74EFB012113484038FEF77B
:104840004BFB12E040211048FEF744FB02210E48CA
:104850004038FEF73FFB08210B484038FEF73AFB93
:10486000012109484038FEF735FB10BD3C0000200F
:10487000420000206E0000203F0000206800002061
:104880006A0000209805002040080140B036000072
:10489000581B00006C000020704700003CB5418BA5
:1048A0001822494209B24183324B825E5943930335
:1048B000C9184942CB175B0C5918C9130BB2D11850
:1048C0006C4649422280638009B2A1809A420ADC88
:1048D0008A4206DC8B4201DC0C4600E01C461419BF
:1048E00009E0CC1807E08B421EDC8A4201DC0C4652
:1048F00000E014461C19E50F2C196410121B6D46BC
:104900002A801A1B091B6A80A980AC220021125838
:10491000695E0124A403938909195943C913643BAF
:104920008B4203DA194604E08C18E4E7392900DAEF
:10493000002141850221695E938909195943C913F0
:10494000643B8B4201DA194602E0392900DA002182
:1049500081850421695E928909195143C913643A1A
:104960008A4201DA114602E0392900DA0021C185C4
:104970003CBD0000DA6E0000704700001A4A1B4B75
:104980009A62012915D18A020240002A09D08A07B9
:1049900012698B029A438B071A618B0202469A4373
:1049A0001046012292071269024301239B071A61F4
:1049B00015E0012292020240002A09D0012292074A
:1049C000126901239B021A431B051A611A15104331
:1049D000012292071269824301239B071A61002278
:1049E000024B9A6270470000837A0000800000400A
:1049F000094A0A4B9A62002904D01A46D269024336
:104A0000DA6104E0054AD2698243044BDA6100228C
:104A1000024B9A6270470000837A000080000040D9
:104A200008B50021009103E000BF0099491C0091E6
:104A300000998142F8D308BD10B50446616820682A
:104A4000411A61620B49606A884201DD084607E04D
:104A500008494942606A884201DA084600E0606A13
:104A600060622046183000F026F801B20248C18189
:104A700010BD0000FF7F000090010020C2680168A7
:104A8000914209DA826B016889180160C268016885
:104A9000914201DBC1680160C2680168914209DD91
:104AA000C26B0168891A0160C2680168914201DC29
:104AB000C16801607047F0B58FB004462068C11727
:104AC000820A8905114385050E466068C117820A6E
:104AD00089051143800501910090E068C11767893D
:104AE00000220392049105903A46039BFBF75EFB7C
:104AF000E161A0612369E269A169606959185041C7
:104B000021616061324661692069281A8A4102DAAE
:104B1000666125610AE06369226901990098101AAB
:104B20008B4103DA0199009861612061E068C21746
:104B3000218900230A930C920B910D9011460B9A38
:104B4000FBF734FB8023002207930692089109901B
:104B50001A46069BFBF72AFBE161A061A369626923
:104B60002169E06959185041A161E0613246E1696B
:104B7000A069281A8A4102DAE661A5610AE0E369C0
:104B8000A26901990098101A8B4103DA01990098E3
:104B9000E161A061E0698202A169880D1043029081
:104BA000029800B20FB0F0BDC268D10142698A42DA
:104BB00008DA1023C35E4269D218426142698A4210
:104BC00000DB416142698A4208DD1223C35E42690B
:104BD000D21A426142698A4200DC4161704700009A
:104BE00010B500201E4908601E480221415E3C2984
:104BF0000ADA4088401C00B21A4948801A48808866
:104C000000B21A49888015E016480221415EB42995
:104C10000ADA4088401C00B21249488012480088D5
:104C200000B21249888005E0042011490871002073
:104C30000C4948800F4801F01DF800B20B4908806C
:104C40000C4801F017F800B2084948800846FFF701
:104C50001FFA00210848C18141828182018210BD72
:104C6000C0020020D80400207C0200204004002064
:104C7000400100200AD7233C9001002010B539489C
:104C8000807B00281DD101203649887300203649D9
:104C90004885002134488185C185408D404200B25D
:104CA000314908860846808D404201B22E4841862F
:104CB000C08D404201B22C48818600202B490880DB
:104CC00040E02A480088002805D101212848FFF744
:104CD0001DFA00BF23E02548008832281AD172B699
:104CE00024482149488501461F488185C185408D5A
:104CF000404200B21C4908860846808D404201B2FD
:104D000019484186C08D404201B21748818662B67B
:104D100000BF04E015480088642800D100BF134894
:104D20000021415E962905DA0088401C00B20F4937
:104D3000088007E00D480021415E962902DB022031
:104D40000849C8730748C07B022809D100200549DB
:104D50008873064908800349C8730320064908710F
:104D600010BD00007C02002050010020D80400206B
:104D700000070140210200004001002010B5254835
:104D8000008800280CD1FCF7C5F92348C08800280A
:104D90003ED101201F49088064201F49C88037E0A8
:104DA0001C480088012815D11B48C08800282FD135
:104DB0001948C07800282BD01848C068642803DA46
:104DC00002201449088002E0032012490880FCF701
:104DD00097F91DE00F480088022807D101211048EB
:104DE000FFF794F907200C49087111E00948008881
:104DF000032806D104200749088005200649C880F9
:104E000006E004480088042802D1072002490871FE
:104E100010BD000000000020400100201803002009
:104E20000007014010B500200349C8700021034865
:104E3000FFF76CF910BD00004001002000070140A1
:104E400010B5124800F02CFF0446FCF7FDF910499C
:104E5000C8608120C00500F023FF0446FCF7F4F988
:104E60000B4988630B4800F01BFF0446FCF7ECF984
:104E70000749C8630846FFF701FE0548FFF7DCFD58
:104E8000FCF70EFDFCF73EFD10BD00000080D44491
:104E9000C00200200000404070B500219548FFF797
:104EA00035F972B6944800F0FBFE00B293490882CF
:104EB000934800F0F5FE00B29049488200209149E5
:104EC0008877782008840C204884002088804880D7
:104ED00008808860886148610882C860FFF774F8BC
:104EE00000208949887085498873C87300F0ACFE3A
:104EF00082498881854800F0BDFE0546FCF798F997
:104F000000B27E498882824800F0B4FE0546FCF774
:104F10008FF900B27949C8827E487F49088048806D
:104F200088808031086B804700217B4840300182B7
:104F3000C1814038C18100207749888108820021E1
:104F40007548418240308182418200207249088048
:104F500048808880088600216F48418681868C3091
:104F6000C16041618C38C1677030416100206A497D
:104F70000883002168484183C182002066498882F5
:104F8000888400216448C1840185002000F072FEFD
:104F90005A490860614800F06DFE58494860002099
:104FA0005F4908824882486188808860C8805D487F
:104FB00000F076FE514988600020887788835A493E
:104FC00008800A205049C8805849594801847D21E9
:104FD000C900418400228262C262564800F04AFE43
:104FE0000546FCF725F952498861524800F042FE17
:104FF0000546FCF71DF941424D48C161002141625F
:1050000000204B490860C8608120C00500F048FEC0
:105010000546FCF719F946498863474800F040FE09
:105020000546FCF711F94249C8630020486048640E
:10503000314800F035FE0546FCF706F93C490864A6
:10504000FF20013088643D4800F014FE0546FCF75F
:10505000EFF801B236484030C181394800F020FEF7
:105060000546FCF7F1F832490865FFF7B1F82D481D
:1050700000F016FE0546FCF7E7F83249888732480B
:1050800000F00EFE0546FCF7DFF81C49C8632F4808
:1050900000F006FE0546FCF7D7F818490864002022
:1050A0002B49088048808880C88008814881888191
:1050B000FDF7D4F81448008804B2FCF745F862B64E
:1050C00000BF11480088001B03D40F480088001B54
:1050D00002E00D480088201A0228F2DBF0201D496A
:1050E000C880C82008814881AA208881002088843F
:1050F000C88470BD00070140000020417C020020F0
:105100000000A04118030020400100200AD7A33B63
:10511000CDCCCC3D21020000500100206666263F28
:10512000400400200000704200000020B80B000086
:10513000C0020020E17A143F000040403333B3BE88
:105140000000AF433C0200200000F0410000964305
:10515000D80400209805002010B54948807F002819
:105160007ED148488078002804D145488068464967
:10517000C86004E04248806840424349C86000205B
:1051800000F08EFD00B240490882404800F088FDE2
:1051900000B23D4948820846FFF706FD3A4840699B
:1051A000C0113B49C860C868FCF74EF83849086030
:1051B000384880693749C969401A31490862084648
:1051C000006A002802DB0846006A02E02C48006AF8
:1051D000404200142A4908620846006A7D210901FC
:1051E00088420BDD2648006A2B49884206DA2448AB
:1051F000808C401C00B22249888402E000202049B3
:10520000888407201F49087101201D4988771D489F
:105210008078002809D1214800F02CFD0446FCF7D5
:1052200007F801B21E4841820DE016488078012837
:1052300009D11A4800F01EFD0446FBF7F9FF404271
:1052400001B217484182174800F014FD0446FBF7ED
:10525000EFFF00B20A498882134800F00BFD00E01E
:105260000CE00446FBF7E4FF00B20549C882FCF7F6
:1052700017FBFCF747FB00210948818210BD0000A5
:105280007C02002040010020400400200000A041DA
:10529000C00200203C020020504600006666263F07
:1052A000900100200AD7A33BCDCCCC3D10B5012006
:1052B0001B4988720020C87202208877302008605D
:1052C0004B2040014860174808810020164948617A
:1052D00008464069C91408431349486172B6FEF78D
:1052E0002DFA62B6FBF730FFFEF700FD0F4880781D
:1052F000002808D10E48808909498989401800048E
:105300000C49C8610BE009488078012807D104489E
:10531000808907498989401A00040649C86110BD7F
:10532000B804002042040000400401404001002075
:105330007C0200203C02002070B5D3480C21415E65
:1053400002292EDAD1480088012816D1D0480069F8
:10535000002802DBCE48006902E0CD4800694042E7
:10536000CC49096C884208DDC7488089401C00B2DE
:10537000C54988810220888102E00020C2498881D5
:10538000C5490C20085EC117820A890511438205B0
:10539000BF488262C1624068BD490860FCF7B2FA4A
:1053A00050E0B9480621415E002907DAC088401C58
:1053B00000B2B549C880FCF7A5FA43E0B548808B38
:1053C000401C00B2B349888300283BDB002088835F
:1053D000B24800788000B2490858AD49C860B14869
:1053E0008078002808D10846C068002811DA0846ED
:1053F000C0684042C8600CE0AA488078012808D103
:10540000A348C068002804DDA148C0684042A04904
:10541000C860A5480078012807D10020A34908806A
:10542000A3490880FCF76EFA0CE00120A14908703E
:105430009748FFF723FB9648FFF7FEFAFBF710FFAC
:105440009B4908809C48807F01282FD1954800798E
:1054500007282BD19048B430018944380181443069
:1054600041894438418160300189443801814430A8
:1054700041894438418186484030C189864840305E
:10548000418201208849087081480069002802DBB8
:105490007F48006902E07E48006940427C49096D0E
:1054A000884202DA09207F490871E3E0834CA4892D
:1054B000834D6C43A401220C804CE489814D6C43E4
:1054C000A401230C7D4C24897D4D6C43A401200C48
:1054D0007A4C64897B4D6C43A401210C6C4C24698B
:1054E000002C02DB6A4C246902E0694C24696442A6
:1054F000754DAC4214DC714CA589674C7034258124
:105500006E4CE589644C703465816C4C2589624C25
:105510008C342581694C65895F4C8C34658191E0C0
:105520005B4C2469002C02DB594C246902E0584C86
:1055300024696442654DAC4260DC604CA489151B53
:10554000534C2469002C02DB514C246902E0504C7E
:10555000246964425C4EA41B6543AC13574DAD896E
:105560006419A5B24C4C70342581544CE4891D1B40
:10557000474C2469002C02DB454C246902E0444C72
:1055800024696442504EA41B6543AC134B4DED8916
:105590006419A5B2404C70346581484C2489051BC0
:1055A0003B4C2469002C02DB394C246902E0384C66
:1055B00024696442444EA41B6543AC133F4D2D89BE
:1055C0006419A5B2344C8C3425813C4C64890D1B84
:1055D0002F4C2469002C02DB2D4C246902E02C4C5A
:1055E00024696442384EA41B6543AC13334D6D8966
:1055F0006419A5B2284C8C34658123E02F4CA48912
:105600002F4D6C43A401250C234C703425812B4C69
:10561000E4892C4D6C43A401250C1F4C703465812A
:10562000264C2489264D6C43A401250C1A4C8C343D
:105630002581224C6489234D6C43A401250C164C12
:105640008C346581144C8C342489214D2C80124C6F
:105650008C3464891F4D2C800F4C703424891E4D6E
:105660002C800D4C703464891C4D2C8000240E4D10
:105670002C7000BF0E480021415E074840308182F7
:10568000FCF70EF970BD0000D80400207A0000205D
:10569000C00200207C0200205001002040000020B9
:1056A000DC050020400100200200002092000020C4
:1056B0009000002014000020980500203C020020EB
:1056C0000A0D0000E0220200701700007057000071
:1056D00006000020080000200A0000200C00002026
:1056E00008480A21415EFA2905DA4089401C00B2C7
:1056F0000449488105E000200249488102490871B7
:10570000C8707047D8040020400100207047000096
:1057100010B54B480079030000F057FB110A272110
:10572000373A24313D725E6169725A72725D72005D
:105730004448807F002808D143484449086000203D
:105740004349087001203E49C8703D48C078002890
:1057500004D0FFF7A1FB02203949087151E0FFF79F
:105760008DFA4EE0FFF70AFB4BE0FFF795FB0121B6
:105770003848FEF7CBFC03203149087141E0FFF7C0
:1057800095FD01202E4908713BE0FFF729FA38E02A
:10579000FFF7E2FC35E02B48008A7D2109018842B1
:1057A00004DA2848008A401C26490882FFF7C4FD15
:1057B0002348C07800280AD127480088002806D14D
:1057C00000212448FEF7A2FC00201D49087118E0C2
:1057D000FFF736FB15E014E0FFF782FF11E01848F1
:1057E000C088002802D000201549087109E0FFF7A1
:1057F00019FB19480088002801D11149087100E0FF
:1058000000BF00BF0E48C07800280CD112480088A5
:10581000002808D100210F48FEF778FCC82008496D
:10582000C880002008710C480088002806D000219C
:105830000848FEF76BFC0B200149087110BD000001
:105840004001002098050020C0DA0000640000201C
:105850002E000020000701401C00002010B5FCF7BE
:1058600003F810BD10B5FEF76DFC10BD0B48006AC3
:1058700004210843094908620948C078401C0849C6
:10588000C87008468088401C88800846C088401C34
:10589000C88008460089401C088170470006014006
:1058A0003001002070B505460C462748854203D1DB
:1058B00001212020FFF79CF82448854203D10121D3
:1058C0004020FFF795F82078C0072179C9060843E2
:1058D000217A89060843217B09060843218A0905A4
:1058E0000843A18A09040843E16909030843216ABE
:1058F000C9020843616A89020843A16A4902084350
:10590000E16A09020843616B09010843A16BC90000
:105910000843E16B89000843216C49000843616C2E
:1059200008432860A0696860E06CA860A06CE8602B
:10593000206B2861206D6861606DA861A06DE861D1
:105940000720286270BD00000005014000060140EC
:105950000021016041608160C1600161416181613C
:105960000121C1610162002141628162C162016362
:105970004163012181630021C16301644164816449
:10598000C1640165416581657047000010B5264816
:10599000C078022821DB00202349C87000BF2348BB
:1059A000C088002804D02148C088401E1F49C880F4
:1059B00000BFFCF7C7FB00F0B4F8FDF7D7FA1C48AE
:1059C0000088002802D00B2018490871FFF7A0FEBC
:1059D00018492220085EFCF771F9134880881428C2
:1059E00002DB0020104988800F48C088C82808DBE7
:1059F00000200D49C8801048807C012801D1FDF7A6
:105A000083FD094800897D21C900884204DB00200C
:105A10000549088100F072FA03488078002802D016
:105A200000200149887010BD300100204001002095
:105A30001C000020500100209805002010B50448EB
:105A40000449886201210803FEF798FF10BD000099
:105A5000837A00008000004008B502460120C003A0
:105A600010180004810D084603231B02184000286B
:105A70002CD0FF38013800283BD0FF3801380028EF
:105A800004D0FF380138002844D10EE00806C00DCC
:105A9000224B1B5A68464380C8B2FF23181A4000A5
:105AA0001E4B1B5A6846038035E0C8B2FF23181A04
:105AB00040001A4B1B5A684643800806C00D174B1E
:105AC000185A404203B26846038024E00806C00D1D
:105AD000124B185A404203B268464380C8B2FF23B3
